{
    "contractName": "Cliente",
    "abi": [
        {
            "inputs": [
                {
                    "internalType": "address",
                    "name": "_cofre",
                    "type": "address"
                }
            ],
            "stateMutability": "nonpayable",
            "type": "constructor"
        },
        {
            "anonymous": false,
            "inputs": [
                {
                    "indexed": true,
                    "internalType": "address",
                    "name": "ownerAddr",
                    "type": "address"
                },
                {
                    "indexed": false,
                    "internalType": "uint256",
                    "name": "valor",
                    "type": "uint256"
                }
            ],
            "name": "DepositoDoOwner",
            "type": "event"
        },
        {
            "anonymous": false,
            "inputs": [
                {
                    "indexed": true,
                    "internalType": "address",
                    "name": "ownerAddr",
                    "type": "address"
                },
                {
                    "indexed": false,
                    "internalType": "uint256",
                    "name": "valor",
                    "type": "uint256"
                }
            ],
            "name": "SaqueDoOwner",
            "type": "event"
        },
        {
            "inputs": [],
            "name": "cofreEndereco",
            "outputs": [
                {
                    "internalType": "address",
                    "name": "",
                    "type": "address"
                }
            ],
            "stateMutability": "view",
            "type": "function"
        },
        {
            "inputs": [],
            "name": "consultarMeuSaldoNoCofre",
            "outputs": [
                {
                    "internalType": "uint256",
                    "name": "",
                    "type": "uint256"
                }
            ],
            "stateMutability": "view",
            "type": "function"
        },
        {
            "inputs": [],
            "name": "depositar",
            "outputs": [],
            "stateMutability": "payable",
            "type": "function"
        },
        {
            "inputs": [],
            "name": "owner",
            "outputs": [
                {
                    "internalType": "address",
                    "name": "",
                    "type": "address"
                }
            ],
            "stateMutability": "view",
            "type": "function"
        },
        {
            "inputs": [
                {
                    "internalType": "uint256",
                    "name": "valor",
                    "type": "uint256"
                }
            ],
            "name": "sacar",
            "outputs": [],
            "stateMutability": "nonpayable",
            "type": "function"
        },
        {
            "stateMutability": "payable",
            "type": "receive"
        }
    ],
    "bytecode": "60803460d257601f61065d38819003918201601f19168301916001600160401b0383118484101760d65780849260209460405283398101031260d257516001600160a01b0381169081900360d25780156081575f80546001600160a01b0319908116929092179055600180549091163317905560405161057290816100eb8239f35b60405162461bcd60e51b815260206004820152602360248201527f456e64657265636f20646f20436f667265206e616f20706f646520736572207a60448201526265726f60e81b6064820152608490fd5b5f80fd5b634e487b7160e01b5f52604160045260245ffdfe6080604052600436101561001a575b3615610018575f80fd5b005b5f5f3560e01c80633d922f90146103a0578063426ee8cf146103005780637371b0d6146100ae5780638da5cb5b146100855763fd6b81da1461005c575061000e565b34610082578060031936011261008257546040516001600160a01b039091168152602090f35b80fd5b50346100825780600319360112610082576001546040516001600160a01b039091168152602090f35b5034610082576020366003190112610082576004356100d860018060a01b03600154163314610494565b80156102ac57815482906001600160a01b0316803b1561029d578180916024604051809481936339b8d86b60e11b83528860048401525af180156102a157610288575b505080471061021d57818080808460018060a01b03600154165af13d15610218573d67ffffffffffffffff81116102045760405190610164601f8201601f191660200183610506565b81528360203d92013e5b156101af576001546040519182526001600160a01b0316907fa523e521ea00545229e9e3f967a022ffb0be374bcd9009e2ad50432c5a5e525990602090a280f35b60405162461bcd60e51b815260206004820152602760248201527f5265706173736520646f20436c69656e74652070617261206f206f776e65722060448201526666616c686f752160c81b6064820152608490fd5b634e487b7160e01b84526041600452602484fd5b61016e565b60405162461bcd60e51b815260206004820152603760248201527f436c69656e7465206e616f2074656d20457468657220737566696369656e746560448201527f207061726120726570617373617220646f20436f6672650000000000000000006064820152608490fd5b8161029291610506565b61029d57815f61011b565b5080fd5b6040513d84823e3d90fd5b60405162461bcd60e51b815260206004820152602660248201527f56616c6f7220646f207361717565206465766520736572206d61696f7220717560448201526565207a65726f60d01b6064820152608490fd5b503461008257806003193601126100825761032660018060a01b03600154163314610494565b805460405163218895e360e01b815230600482015290602090829060249082906001600160a01b03165afa9081156102a157829161036a575b602082604051908152f35b90506020813d602011610398575b8161038560209383610506565b8101031261029d5760209150515f61035f565b3d9150610378565b505f36600319011261044b576103c160018060a01b03600154163314610494565b341561044f575f546001600160a01b0316803b1561044b575f600491604051928380926303d922f960e41b825234905af180156104405761042d575b506040513481527fa88377ec48ddb8362c554cf1ff840dfad21fa997ea01f734207b8b6ef96ae24860203392a280f35b61043991505f90610506565b5f5f6103fd565b6040513d5f823e3d90fd5b5f80fd5b60405162461bcd60e51b815260206004820152601a60248201527f5072656369736120656e7669617220616c67756d2045746865720000000000006044820152606490fd5b1561049b57565b60405162461bcd60e51b815260206004820152603960248201527f4f6e6c79206f776e6572206f66207468697320636c69656e7420636f6e74726160448201527f63742063616e2063616c6c20746869732066756e6374696f6e000000000000006064820152608490fd5b90601f8019910116810190811067ffffffffffffffff82111761052857604052565b634e487b7160e01b5f52604160045260245ffdfea264697066735822122021c568c324ece1078efc0ccfc0949c36eaaea51d78a6fba71f58d20642c0d1fb64736f6c634300081e0033",
    "sourcePath": "d:/Code/Meus Projetos/Estudos/ETH-KIPU-Blockchain/Projetos/EthKipu/src/pages/Cofre/Cliente.sol",
    "compiler": {
        "name": "solc",
        "version": "0.8.30+commit.73712a01"
    },
    "functionHashes": {
        "cofreEndereco()": "fd6b81da",
        "consultarMeuSaldoNoCofre()": "426ee8cf",
        "depositar()": "3d922f90",
        "owner()": "8da5cb5b",
        "sacar(uint256)": "7371b0d6"
    },
    "gasEstimates": {
        "creation": {
            "codeDepositCost": "278800",
            "executionCost": "infinite",
            "totalCost": "infinite"
        },
        "external": {
            "cofreEndereco()": "2357",
            "consultarMeuSaldoNoCofre()": "infinite",
            "depositar()": "infinite",
            "owner()": "2343",
            "sacar(uint256)": "infinite"
        }
    }
}